:10020F00082C11111111111111110837FFFFFFFFE8
:10021F00FFFFFFFF0234FFFF0223FFFF0227FFFF55
:0D022F00012A02C100012200012100C1814D
:1001B200D3EF9400EE940040257DC7EDD3940074F4
:1001C20080948040127C01ECD3940074809480402F
:0F01D200031C80F31D80E4EF1F70D51E80D22226
:0C001600AE071FEE600500000080F52220
:10023D00E4FDD2B27F50120016C2B27FF01200164A
:10024D007FF0120016D2B27F3C120016A2B2E43338
:0B025D00FD7FF01200167FB4020016B7
:10026800E4FC7D08EDD39400748094804015C2B2FC
:10027800EC13FCD2B230B2034304807F3C12001668
:060288001D80E1AF04221D
:1002D900AD077B08EBD39400748094804014C2B2BC
:1002E900ED1392B27F3C120016D2B2EDC313FD1B7F
:0302F90080E2227E
:1002B40012023D7FCC1202D97F441202D912023DB0
:1002C4007FCC1202D97FBE1202D91202688F221289
:0502D40002688F2122E9
:1001E100758920758DFD758BFDE4F5877598D0C2F5
:1001F1009DD28EC299C298D2AFD2AC538EF7759A66
:0E02010050438E04759CDC438E1075AF0122B5
:0A02FC00C29B8F993099FDC2992230
:0B0032008F9BE59A30E1FB539AFD2202
:100175008B088A09890AE4FFFEAB08AA09A90A12B5
:1001850000D2AB0BAA0CA90D1201187401250DF5AF
:100195000DE4350CF50C7401250AF50AE43509F56D
:0D01A500090FBF00010EEF64084E70CD225F
:0C002600C299D29B8F993099FDC299229B
:10028E008B0E8A0F8910E4FDFCAB0EAA0FA9108D00
:10029E00828C831200EBFF1202FC0DBD00010CEDEF
:0602AE0064084C70E4221C
:05003D001201E180FE4C
:0300230002012AAD
:10012A00C0E0C0D075D000C003C004C005C006C07E
:10013A0007C2AC309824C298859936309A1CE536A5
:10014A00B52A13D29DD2001202B4AF221202FCAF1A
:10015A00211202FC8004D29DC200D2ACD007D00684
:0B016A00D005D004D003D0D0D0E0328C
:03004300020003B5
:10000300C0E0E59A30E009539AFE752B01859B3FCA
:03001300D0E03208
:03000000020046B5
:0C004600787FE4F6D8FD75813F02008D44
:1000D200BB010689828A83E0225002E722BBFE022C
:0900E200E32289828A83E493225F
:1000EB00BB010CE58229F582E5833AF583E02250CA
:1000FB0006E92582F8E622BBFE06E92582F8E22214
:0D010B00E58229F582E5833AF583E493222D
:10011800BB010689828A83F0225002F722BBFE01C6
:02012800F322C0
:1000520002003DE493A3F8E493A34003F68001F287
:1000620008DFF48029E493A3F85407240CC8C333AF
:10007200C4540F4420C8834004F456800146F6DF7E
:10008200E4800B010204081020408090020FE47EFD
:10009200019360BCA3FF543F30E509541FFEE49373
:1000A200A360010ECF54C025E060A840B8E493A33A
:1000B200FAE493A3F8E493A3C8C582C8CAC583CA65
:1000C200F0A3C8C582C8CAC583CADFE9DEE780BE1D
:01023C0000C1
:00000001FF
