:10030A00082811111111111111110833FFFFFFFFF4
:10031A00FFFFFFFF0230FFFF0221FFFF0226FFFF60
:05032A00012401C100E7
:1002B600758920758DFD758BFDE4F5877598D0D20F
:1002C6009DD28EC299C298D2AFD2AC538EF7759A90
:0E02D60050438E04759CDC438E1075AF0122E0
:0A000E00C29B8F993099FDC2992220
:0B0003008F9BE59A30E1FB539AFD2231
:100247008B0B8A0C890DE4FFFEAB0BAA0CA90D12D0
:1002570001EFAB0EAA0FA91012023574012510F594
:1002670010E4350FF50F7401250DF50DE4350CF588
:0D0277000C0FBF00010EEF64084E70CD2289
:1002E4008B088A09890AE4FDFCAB08AA09A90A8DCE
:1002F400828C83120208FF12000E0DBD00010CED6A
:0603040064084C70E422C5
:10028400D29D30982CC298309A27752301859932D3
:10029400E532B52418C29DD200E5316401453060D1
:1002A400F87B007A0079281202E4D29D22D29DC202
:0202B400002226
:050018001202B680FE9B
:0300230002018D4A
:10018D00C0E0C083C082C0D075D000C000C001C027
:10019D0002C003C004C005C007C2AC30982BC29882
:1001AD00859932309A23E532B5241AD29DD200E5D5
:1001BD002745267008FB7A0079281202E47526007F
:1001CD007527018004D29DC200D2ACD007D005D0D6
:1001DD0004D003D002D001D000D0D0D082D083D0B3
:0201ED00E032FE
:0300430002004672
:10004600C0E0C083C082C0D075D000C000C001C06F
:1000560002C003C006C007E59A20E0030200EC5385
:100066009AFE752501859B3BAF3B7E00EF64AA7027
:100076001AF530753101F521F52274282522F8A6E6
:100086003B0522E52270020521805BD3E522940020
:10009600E52164809480401DE5229407E521648073
:1000A6009480501174282522F8A63B0522E522707B
:1000B6000205218031E522640745217029F521F5E5
:1000C60022EF64554E701F853B2FF50E750F007598
:1000D6001033FB7A0079281202477526007527002F
:1000E600753000753100D007D006D003D002D0019C
:0B00F600D000D0D0D082D083D0E03208
:03000000020101F9
:0C010100787FE4F6D8FD75813B020148D0
:1001EF00BB010689828A83E0225002E722BBFE020E
:0901FF00E32289828A83E4932241
:10020800BB010CE58229F582E5833AF583E02250AB
:1002180006E92582F8E622BBFE06E92582F8E222F5
:0D022800E58229F582E5833AF583E493220F
:10023500BB010689828A83F0225002F722BBFE01A8
:02024500F322A2
:10010D00020018E493A3F8E493A34003F68001F2F0
:10011D0008DFF48029E493A3F85407240CC8C333F3
:10012D00C4540F4420C8834004F456800146F6DFC2
:10013D00E4800B010204081020408090030AE47E45
:10014D00019360BCA3FF543F30E509541FFEE493B7
:10015D00A360010ECF54C025E060A840B8E493A37E
:10016D00FAE493A3F8E493A3C8C582C8CAC583CAA9
:10017D00F0A3C8C582C8CAC583CADFE9DEE780BE61
:01032F0000CD
:00000001FF
