:1001EA00082811111111111111110833FFFFFFFF16
:1001FA00FFFFFFFF0230FFFF0221FFFF0223FFFF85
:05020A00012601C10006
:10016700D3EF9400EE940040257DC7EDD39400743F
:1001770080948040127C01ECD3940074809480407A
:0F018700031C80F31D80E4EF1F70D51E80D22271
:10019600758920758DFD758BFDE4F5877598D0C240
:1001A6009DD28EC299C298D2AFD2AC538EF7759AB1
:0E01B60050438E04759CDC438E1075AF012201
:0A003900C29B8F993099FDC29922F5
:0B0228008F9BE59A30E1FB539AFD220A
:10012A008B088A09890AE4FFFEAB08AA09A90A1200
:10013A0000D2AB0BAA0CA90D1201187401250DF5FA
:10014A000DE4350CF50C7401250AF50AE43509F5B8
:0D015A00090FBF00010EEF64084E70CD22AA
:0C021000C299D29B8F993099FDC29922AF
:1001C4008B0E8A0F8910E4FDFCAB0EAA0FA9108DCB
:1001D400828C831200EBFF1200390DBD00010CED7F
:0601E40064084C70E422E7
:10000300120196E52764017008F527AF3BFE120243
:1000130010E525640170ECF525AF3212022880E368
:0300230002021CBA
:0C021C00309808C298752501859932328F
:0300430002002692
:10002600C0E0E59A30E009539AFE752701859B3BAF
:03003600D0E032E5
:03000000020046B5
:0C004600787FE4F6D8FD75813B02008D48
:1000D200BB010689828A83E0225002E722BBFE022C
:0900E200E32289828A83E493225F
:1000EB00BB010CE58229F582E5833AF583E02250CA
:1000FB0006E92582F8E622BBFE06E92582F8E22214
:0D010B00E58229F582E5833AF583E493222D
:10011800BB010689828A83F0225002F722BBFE01C6
:02012800F322C0
:10005200020003E493A3F8E493A34003F68001F2C1
:1000620008DFF48029E493A3F85407240CC8C333AF
:10007200C4540F4420C8834004F456800146F6DF7E
:10008200E4800B01020408102040809001EAE47E23
:10009200019360BCA3FF543F30E509541FFEE49373
:1000A200A360010ECF54C025E060A840B8E493A33A
:1000B200FAE493A3F8E493A3C8C582C8CAC583CA65
:1000C200F0A3C8C582C8CAC583CADFE9DEE780BE1D
:01020F0000EE
:00000001FF
